:100000000C942A000C945B000C9477000C949300E1
:100010000C9434000C9434000C9434000C94340090
:100020000C9434000C9434000C9434000C94340080
:100030000C9434000C9434000C9434000C94340070
:100040000C9434000C9434000C9434000C94340060
:100050000C94340011241FBECFE5D8E0DEBFCDBF25
:100060000E9436000C94AF000C94000081B38062B3
:1000700081BB81B3806481BB81B3806881BB85B75C
:10008000846085BF85B7836085BF84B784BF8BB725
:1000900080628BBF8BB780648BBF8BB780688BBF50
:1000A000789482B38F7D82BB82B38F7B82BB82B315
:1000B0008F7782BBF6CF1F920F920FB60F9211244B
:1000C0002F938F939F9382B3806282BB2FEF89E639
:1000D00098E1215080409040E1F700C000009F91DE
:1000E0008F912F910F900FBE0F901F9018951F9218
:1000F0000F920FB60F9211242F938F939F9382B379
:10010000806482BB2FEF89E698E1215080409040C7
:10011000E1F700C000009F918F912F910F900FBECB
:100120000F901F9018951F920F920FB60F921124E7
:100130002F938F939F9382B3806882BB2FEF89E6C2
:1001400098E1215080409040E1F700C000009F916D
:100150008F912F910F900FBE0F901F901895F894CC
:02016000FFCFCF
:00000001FF
